{
  "_format": "hh-sol-artifact-1",
  "contractName": "Swap",
  "sourceName": "src/backend/contracts/Swap.sol",
  "abi": [
    {
      "inputs": [
        {
          "internalType": "address",
          "name": "_tokenAddress",
          "type": "address"
        }
      ],
      "stateMutability": "nonpayable",
      "type": "constructor"
    },
    {
      "anonymous": false,
      "inputs": [
        {
          "indexed": true,
          "internalType": "address",
          "name": "previousOwner",
          "type": "address"
        },
        {
          "indexed": true,
          "internalType": "address",
          "name": "newOwner",
          "type": "address"
        }
      ],
      "name": "OwnershipTransferred",
      "type": "event"
    },
    {
      "inputs": [
        {
          "internalType": "bytes32[]",
          "name": "_proof",
          "type": "bytes32[]"
        }
      ],
      "name": "buyTokens",
      "outputs": [],
      "stateMutability": "payable",
      "type": "function"
    },
    {
      "inputs": [],
      "name": "feePercentDeposit",
      "outputs": [
        {
          "internalType": "uint256",
          "name": "",
          "type": "uint256"
        }
      ],
      "stateMutability": "view",
      "type": "function"
    },
    {
      "inputs": [],
      "name": "feePercentWithdraw",
      "outputs": [
        {
          "internalType": "uint256",
          "name": "",
          "type": "uint256"
        }
      ],
      "stateMutability": "view",
      "type": "function"
    },
    {
      "inputs": [
        {
          "internalType": "bytes32[]",
          "name": "_proof",
          "type": "bytes32[]"
        },
        {
          "internalType": "bytes32",
          "name": "_leaf",
          "type": "bytes32"
        }
      ],
      "name": "isValidPrivatePresale",
      "outputs": [
        {
          "internalType": "bool",
          "name": "",
          "type": "bool"
        }
      ],
      "stateMutability": "view",
      "type": "function"
    },
    {
      "inputs": [
        {
          "internalType": "bytes32[]",
          "name": "_proof",
          "type": "bytes32[]"
        },
        {
          "internalType": "bytes32",
          "name": "_leaf",
          "type": "bytes32"
        }
      ],
      "name": "isValidPublicPresale",
      "outputs": [
        {
          "internalType": "bool",
          "name": "",
          "type": "bool"
        }
      ],
      "stateMutability": "view",
      "type": "function"
    },
    {
      "inputs": [],
      "name": "owner",
      "outputs": [
        {
          "internalType": "address",
          "name": "",
          "type": "address"
        }
      ],
      "stateMutability": "view",
      "type": "function"
    },
    {
      "inputs": [],
      "name": "publicSaleEnabled",
      "outputs": [
        {
          "internalType": "bool",
          "name": "",
          "type": "bool"
        }
      ],
      "stateMutability": "view",
      "type": "function"
    },
    {
      "inputs": [],
      "name": "rate",
      "outputs": [
        {
          "internalType": "uint256",
          "name": "",
          "type": "uint256"
        }
      ],
      "stateMutability": "view",
      "type": "function"
    },
    {
      "inputs": [],
      "name": "renounceOwnership",
      "outputs": [],
      "stateMutability": "nonpayable",
      "type": "function"
    },
    {
      "inputs": [
        {
          "internalType": "uint256",
          "name": "_amount",
          "type": "uint256"
        }
      ],
      "name": "sellTokens",
      "outputs": [],
      "stateMutability": "nonpayable",
      "type": "function"
    },
    {
      "inputs": [
        {
          "internalType": "uint256",
          "name": "_fee",
          "type": "uint256"
        }
      ],
      "name": "setFeePercentDeposit",
      "outputs": [],
      "stateMutability": "nonpayable",
      "type": "function"
    },
    {
      "inputs": [
        {
          "internalType": "uint256",
          "name": "_fee",
          "type": "uint256"
        }
      ],
      "name": "setFeePercentWithdraw",
      "outputs": [],
      "stateMutability": "nonpayable",
      "type": "function"
    },
    {
      "inputs": [
        {
          "internalType": "bool",
          "name": "_state",
          "type": "bool"
        }
      ],
      "name": "setPublicSaleEnabled",
      "outputs": [],
      "stateMutability": "nonpayable",
      "type": "function"
    },
    {
      "inputs": [
        {
          "internalType": "uint256",
          "name": "_rate",
          "type": "uint256"
        }
      ],
      "name": "setRate",
      "outputs": [],
      "stateMutability": "nonpayable",
      "type": "function"
    },
    {
      "inputs": [
        {
          "internalType": "bytes32",
          "name": "_whitelistRoot",
          "type": "bytes32"
        }
      ],
      "name": "setWhitelistRootPrivatePresale",
      "outputs": [],
      "stateMutability": "nonpayable",
      "type": "function"
    },
    {
      "inputs": [
        {
          "internalType": "bytes32",
          "name": "_whitelistRoot",
          "type": "bytes32"
        }
      ],
      "name": "setWhitelistRootPublicPresale",
      "outputs": [],
      "stateMutability": "nonpayable",
      "type": "function"
    },
    {
      "inputs": [
        {
          "internalType": "address",
          "name": "newOwner",
          "type": "address"
        }
      ],
      "name": "transferOwnership",
      "outputs": [],
      "stateMutability": "nonpayable",
      "type": "function"
    },
    {
      "inputs": [],
      "name": "whitelistRootPrivatePresale",
      "outputs": [
        {
          "internalType": "bytes32",
          "name": "",
          "type": "bytes32"
        }
      ],
      "stateMutability": "view",
      "type": "function"
    },
    {
      "inputs": [],
      "name": "whitelistRootPublicPresale",
      "outputs": [
        {
          "internalType": "bytes32",
          "name": "",
          "type": "bytes32"
        }
      ],
      "stateMutability": "view",
      "type": "function"
    },
    {
      "inputs": [],
      "name": "withdrawEth",
      "outputs": [],
      "stateMutability": "nonpayable",
      "type": "function"
    },
    {
      "inputs": [],
      "name": "withdrawToken",
      "outputs": [],
      "stateMutability": "nonpayable",
      "type": "function"
    }
  ],
  "bytecode": "0x6080604052620186a0600555602860065560056007553480156200002257600080fd5b5060405162001b5038038062001b5083398181016040528101906200004891906200019a565b620000686200005c620000b760201b60201c565b620000bf60201b60201c565b6001808190555080600260006101000a81548173ffffffffffffffffffffffffffffffffffffffff021916908373ffffffffffffffffffffffffffffffffffffffff1602179055505062000214565b600033905090565b60008060009054906101000a900473ffffffffffffffffffffffffffffffffffffffff169050816000806101000a81548173ffffffffffffffffffffffffffffffffffffffff021916908373ffffffffffffffffffffffffffffffffffffffff1602179055508173ffffffffffffffffffffffffffffffffffffffff168173ffffffffffffffffffffffffffffffffffffffff167f8be0079c531659141344cd1fd0a4f28419497f9722a3daafe3b4186f6b6457e060405160405180910390a35050565b6000815190506200019481620001fa565b92915050565b600060208284031215620001ad57600080fd5b6000620001bd8482850162000183565b91505092915050565b6000620001d382620001da565b9050919050565b600073ffffffffffffffffffffffffffffffffffffffff82169050919050565b6200020581620001c6565b81146200021157600080fd5b50565b61192c80620002246000396000f3fe60806040526004361061012a5760003560e01c8063745df108116100ab578063a32c39981161006f578063a32c3998146103a4578063ab98089f146103cf578063c7a4c663146103eb578063ca628c7814610414578063d2de35ad1461042b578063f2fde38b146104565761012a565b8063745df108146102e557806384021fc3146103105780638720fbef146103395780638da5cb5b14610362578063a0ef91df1461038d5761012a565b806334fcf437116100f257806334fcf437146102145780634e705b9b1461023d57806369537c791461027a5780636c11bcd3146102a5578063715018a6146102ce5761012a565b806302f66f901461012f57806308ae09ff14610158578063247265fa146101955780632ab91bba146101be5780632c4e722e146101e9575b600080fd5b34801561013b57600080fd5b50610156600480360381019061015191906110e9565b61047f565b005b34801561016457600080fd5b5061017f600480360381019061017a9190611043565b610491565b60405161018c9190611342565b60405180910390f35b3480156101a157600080fd5b506101bc60048036038101906101b79190611112565b6104a8565b005b3480156101ca57600080fd5b506101d36104ba565b6040516101e09190611342565b60405180910390f35b3480156101f557600080fd5b506101fe6104cd565b60405161020b9190611458565b60405180910390f35b34801561022057600080fd5b5061023b60048036038101906102369190611112565b6104d3565b005b34801561024957600080fd5b50610264600480360381019061025f9190611043565b6104e5565b6040516102719190611342565b60405180910390f35b34801561028657600080fd5b5061028f6104fc565b60405161029c9190611458565b60405180910390f35b3480156102b157600080fd5b506102cc60048036038101906102c79190611112565b610502565b005b3480156102da57600080fd5b506102e3610778565b005b3480156102f157600080fd5b506102fa61078c565b604051610307919061135d565b60405180910390f35b34801561031c57600080fd5b5061033760048036038101906103329190611112565b610792565b005b34801561034557600080fd5b50610360600480360381019061035b9190611097565b6107a4565b005b34801561036e57600080fd5b506103776107c9565b60405161038491906112c7565b60405180910390f35b34801561039957600080fd5b506103a26107f2565b005b3480156103b057600080fd5b506103b9610843565b6040516103c69190611458565b60405180910390f35b6103e960048036038101906103e49190611002565b610849565b005b3480156103f757600080fd5b50610412600480360381019061040d91906110e9565b610a4d565b005b34801561042057600080fd5b50610429610a5f565b005b34801561043757600080fd5b50610440610bc3565b60405161044d919061135d565b60405180910390f35b34801561046257600080fd5b5061047d60048036038101906104789190610fd9565b610bc9565b005b610487610c4d565b8060048190555050565b60006104a08360035484610ccb565b905092915050565b6104b0610c4d565b8060068190555050565b600860009054906101000a900460ff1681565b60055481565b6104db610c4d565b8060058190555050565b60006104f48360045484610ccb565b905092915050565b60075481565b61050a610ce2565b60006103e86006546103e861051f9190611560565b6005548461052d91906114d5565b6105379190611506565b61054191906114d5565b905081600260009054906101000a900473ffffffffffffffffffffffffffffffffffffffff1673ffffffffffffffffffffffffffffffffffffffff166370a08231336040518263ffffffff1660e01b815260040161059f91906112c7565b60206040518083038186803b1580156105b757600080fd5b505afa1580156105cb573d6000803e3d6000fd5b505050506040513d601f19601f820116820180604052508101906105ef919061113b565b1015610630576040517f08c379a000000000000000000000000000000000000000000000000000000000815260040161062790611398565b60405180910390fd5b80471015610673576040517f08c379a000000000000000000000000000000000000000000000000000000000815260040161066a906113f8565b60405180910390fd5b3373ffffffffffffffffffffffffffffffffffffffff166108fc829081150290604051600060405180830381858888f193505050501580156106b9573d6000803e3d6000fd5b50600260009054906101000a900473ffffffffffffffffffffffffffffffffffffffff1673ffffffffffffffffffffffffffffffffffffffff166323b872dd3330856040518463ffffffff1660e01b8152600401610719939291906112e2565b602060405180830381600087803b15801561073357600080fd5b505af1158015610747573d6000803e3d6000fd5b505050506040513d601f19601f8201168201806040525081019061076b91906110c0565b5050610775610d32565b50565b610780610c4d565b61078a6000610d3b565b565b60035481565b61079a610c4d565b8060078190555050565b6107ac610c4d565b80600860006101000a81548160ff02191690831515021790555050565b60008060009054906101000a900473ffffffffffffffffffffffffffffffffffffffff16905090565b6107fa610c4d565b3373ffffffffffffffffffffffffffffffffffffffff166108fc479081150290604051600060405180830381858888f19350505050158015610840573d6000803e3d6000fd5b50565b60065481565b610851610ce2565b600860009054906101000a900460ff16806108985750610897813360405160200161087c91906112ac565b604051602081830303815290604052805190602001206104e5565b5b806108cf57506108ce81336040516020016108b391906112ac565b60405160208183030381529060405280519060200120610491565b5b61090e576040517f08c379a0000000000000000000000000000000000000000000000000000000008152600401610905906113b8565b60405180910390fd5b662386f26fc10000341015610958576040517f08c379a000000000000000000000000000000000000000000000000000000000815260040161094f90611418565b60405180910390fd5b60006103e86007546103e861096d9190611560565b6005543461097b9190611506565b6109859190611506565b61098f91906114d5565b9050600260009054906101000a900473ffffffffffffffffffffffffffffffffffffffff1673ffffffffffffffffffffffffffffffffffffffff1663a9059cbb33836040518363ffffffff1660e01b81526004016109ee929190611319565b602060405180830381600087803b158015610a0857600080fd5b505af1158015610a1c573d6000803e3d6000fd5b505050506040513d601f19601f82011682018060405250810190610a4091906110c0565b5050610a4a610d32565b50565b610a55610c4d565b8060038190555050565b610a67610c4d565b600260009054906101000a900473ffffffffffffffffffffffffffffffffffffffff1673ffffffffffffffffffffffffffffffffffffffff1663a9059cbb33600260009054906101000a900473ffffffffffffffffffffffffffffffffffffffff1673ffffffffffffffffffffffffffffffffffffffff166370a08231306040518263ffffffff1660e01b8152600401610b0191906112c7565b60206040518083038186803b158015610b1957600080fd5b505afa158015610b2d573d6000803e3d6000fd5b505050506040513d601f19601f82011682018060405250810190610b51919061113b565b6040518363ffffffff1660e01b8152600401610b6e929190611319565b602060405180830381600087803b158015610b8857600080fd5b505af1158015610b9c573d6000803e3d6000fd5b505050506040513d601f19601f82011682018060405250810190610bc091906110c0565b50565b60045481565b610bd1610c4d565b600073ffffffffffffffffffffffffffffffffffffffff168173ffffffffffffffffffffffffffffffffffffffff161415610c41576040517f08c379a0000000000000000000000000000000000000000000000000000000008152600401610c3890611378565b60405180910390fd5b610c4a81610d3b565b50565b610c55610dff565b73ffffffffffffffffffffffffffffffffffffffff16610c736107c9565b73ffffffffffffffffffffffffffffffffffffffff1614610cc9576040517f08c379a0000000000000000000000000000000000000000000000000000000008152600401610cc0906113d8565b60405180910390fd5b565b600082610cd88584610e07565b1490509392505050565b60026001541415610d28576040517f08c379a0000000000000000000000000000000000000000000000000000000008152600401610d1f90611438565b60405180910390fd5b6002600181905550565b60018081905550565b60008060009054906101000a900473ffffffffffffffffffffffffffffffffffffffff169050816000806101000a81548173ffffffffffffffffffffffffffffffffffffffff021916908373ffffffffffffffffffffffffffffffffffffffff1602179055508173ffffffffffffffffffffffffffffffffffffffff168173ffffffffffffffffffffffffffffffffffffffff167f8be0079c531659141344cd1fd0a4f28419497f9722a3daafe3b4186f6b6457e060405160405180910390a35050565b600033905090565b60008082905060005b8451811015610e7857610e6382868381518110610e56577f4e487b7100000000000000000000000000000000000000000000000000000000600052603260045260246000fd5b6020026020010151610e83565b91508080610e7090611617565b915050610e10565b508091505092915050565b6000818310610e9b57610e968284610eae565b610ea6565b610ea58383610eae565b5b905092915050565b600082600052816020526040600020905092915050565b6000610ed8610ed384611498565b611473565b90508083825260208201905082856020860282011115610ef757600080fd5b60005b85811015610f275781610f0d8882610f9a565b845260208401935060208301925050600181019050610efa565b5050509392505050565b600081359050610f408161189a565b92915050565b600082601f830112610f5757600080fd5b8135610f67848260208601610ec5565b91505092915050565b600081359050610f7f816118b1565b92915050565b600081519050610f94816118b1565b92915050565b600081359050610fa9816118c8565b92915050565b600081359050610fbe816118df565b92915050565b600081519050610fd3816118df565b92915050565b600060208284031215610feb57600080fd5b6000610ff984828501610f31565b91505092915050565b60006020828403121561101457600080fd5b600082013567ffffffffffffffff81111561102e57600080fd5b61103a84828501610f46565b91505092915050565b6000806040838503121561105657600080fd5b600083013567ffffffffffffffff81111561107057600080fd5b61107c85828601610f46565b925050602061108d85828601610f9a565b9150509250929050565b6000602082840312156110a957600080fd5b60006110b784828501610f70565b91505092915050565b6000602082840312156110d257600080fd5b60006110e084828501610f85565b91505092915050565b6000602082840312156110fb57600080fd5b600061110984828501610f9a565b91505092915050565b60006020828403121561112457600080fd5b600061113284828501610faf565b91505092915050565b60006020828403121561114d57600080fd5b600061115b84828501610fc4565b91505092915050565b61116d81611594565b82525050565b61118461117f82611594565b611660565b82525050565b611193816115a6565b82525050565b6111a2816115b2565b82525050565b60006111b56026836114c4565b91506111c08261172f565b604082019050919050565b60006111d86019836114c4565b91506111e38261177e565b602082019050919050565b60006111fb6017836114c4565b9150611206826117a7565b602082019050919050565b600061121e6020836114c4565b9150611229826117d0565b602082019050919050565b6000611241601e836114c4565b915061124c826117f9565b602082019050919050565b60006112646021836114c4565b915061126f82611822565b604082019050919050565b6000611287601f836114c4565b915061129282611871565b602082019050919050565b6112a6816115dc565b82525050565b60006112b88284611173565b60148201915081905092915050565b60006020820190506112dc6000830184611164565b92915050565b60006060820190506112f76000830186611164565b6113046020830185611164565b611311604083018461129d565b949350505050565b600060408201905061132e6000830185611164565b61133b602083018461129d565b9392505050565b6000602082019050611357600083018461118a565b92915050565b60006020820190506113726000830184611199565b92915050565b60006020820190508181036000830152611391816111a8565b9050919050565b600060208201905081810360008301526113b1816111cb565b9050919050565b600060208201905081810360008301526113d1816111ee565b9050919050565b600060208201905081810360008301526113f181611211565b9050919050565b6000602082019050818103600083015261141181611234565b9050919050565b6000602082019050818103600083015261143181611257565b9050919050565b600060208201905081810360008301526114518161127a565b9050919050565b600060208201905061146d600083018461129d565b92915050565b600061147d61148e565b905061148982826115e6565b919050565b6000604051905090565b600067ffffffffffffffff8211156114b3576114b26116e2565b5b602082029050602081019050919050565b600082825260208201905092915050565b60006114e0826115dc565b91506114eb836115dc565b9250826114fb576114fa6116b3565b5b828204905092915050565b6000611511826115dc565b915061151c836115dc565b9250817fffffffffffffffffffffffffffffffffffffffffffffffffffffffffffffffff048311821515161561155557611554611684565b5b828202905092915050565b600061156b826115dc565b9150611576836115dc565b92508282101561158957611588611684565b5b828203905092915050565b600061159f826115bc565b9050919050565b60008115159050919050565b6000819050919050565b600073ffffffffffffffffffffffffffffffffffffffff82169050919050565b6000819050919050565b6115ef82611711565b810181811067ffffffffffffffff8211171561160e5761160d6116e2565b5b80604052505050565b6000611622826115dc565b91507fffffffffffffffffffffffffffffffffffffffffffffffffffffffffffffffff82141561165557611654611684565b5b600182019050919050565b600061166b82611672565b9050919050565b600061167d82611722565b9050919050565b7f4e487b7100000000000000000000000000000000000000000000000000000000600052601160045260246000fd5b7f4e487b7100000000000000000000000000000000000000000000000000000000600052601260045260246000fd5b7f4e487b7100000000000000000000000000000000000000000000000000000000600052604160045260246000fd5b6000601f19601f8301169050919050565b60008160601b9050919050565b7f4f776e61626c653a206e6577206f776e657220697320746865207a65726f206160008201527f6464726573730000000000000000000000000000000000000000000000000000602082015250565b7f5573657220686173206e6f7420656e6f75676820636f696e7300000000000000600082015250565b7f596f7520617265206e6f742077686974656c6973746564000000000000000000600082015250565b7f4f776e61626c653a2063616c6c6572206973206e6f7420746865206f776e6572600082015250565b7f486f75736520686173206e6f7420656e6f756768206c69717569646974790000600082015250565b7f4d696e696d756d20616d6f756e7420746f206465706f73697420697320302e3060008201527f3100000000000000000000000000000000000000000000000000000000000000602082015250565b7f5265656e7472616e637947756172643a207265656e7472616e742063616c6c00600082015250565b6118a381611594565b81146118ae57600080fd5b50565b6118ba816115a6565b81146118c557600080fd5b50565b6118d1816115b2565b81146118dc57600080fd5b50565b6118e8816115dc565b81146118f357600080fd5b5056fea26469706673582212203ae6c47c8366bb4d14dfbf764ad19a8014d3707c2a723c1b8e51fd98203a8fae64736f6c63430008040033",
  "linkReferences": {},
  "deployedLinkReferences": {}
}