{
  "_format": "hh-sol-artifact-1",
  "contractName": "Swap",
  "sourceName": "src/backend/contracts/Swap.sol",
  "abi": [
    {
      "inputs": [
        {
          "internalType": "address",
          "name": "_tokenAddress",
          "type": "address"
        }
      ],
      "stateMutability": "nonpayable",
      "type": "constructor"
    },
    {
      "anonymous": false,
      "inputs": [
        {
          "indexed": true,
          "internalType": "address",
          "name": "previousOwner",
          "type": "address"
        },
        {
          "indexed": true,
          "internalType": "address",
          "name": "newOwner",
          "type": "address"
        }
      ],
      "name": "OwnershipTransferred",
      "type": "event"
    },
    {
      "inputs": [
        {
          "internalType": "bytes32[]",
          "name": "_proof",
          "type": "bytes32[]"
        }
      ],
      "name": "buyTokens",
      "outputs": [],
      "stateMutability": "payable",
      "type": "function"
    },
    {
      "inputs": [],
      "name": "feePercentDeposit",
      "outputs": [
        {
          "internalType": "uint256",
          "name": "",
          "type": "uint256"
        }
      ],
      "stateMutability": "view",
      "type": "function"
    },
    {
      "inputs": [],
      "name": "feePercentWithdraw",
      "outputs": [
        {
          "internalType": "uint256",
          "name": "",
          "type": "uint256"
        }
      ],
      "stateMutability": "view",
      "type": "function"
    },
    {
      "inputs": [
        {
          "internalType": "bytes32[]",
          "name": "_proof",
          "type": "bytes32[]"
        },
        {
          "internalType": "bytes32",
          "name": "_leaf",
          "type": "bytes32"
        }
      ],
      "name": "isValid",
      "outputs": [
        {
          "internalType": "bool",
          "name": "",
          "type": "bool"
        }
      ],
      "stateMutability": "view",
      "type": "function"
    },
    {
      "inputs": [],
      "name": "owner",
      "outputs": [
        {
          "internalType": "address",
          "name": "",
          "type": "address"
        }
      ],
      "stateMutability": "view",
      "type": "function"
    },
    {
      "inputs": [],
      "name": "publicSaleEnabled",
      "outputs": [
        {
          "internalType": "bool",
          "name": "",
          "type": "bool"
        }
      ],
      "stateMutability": "view",
      "type": "function"
    },
    {
      "inputs": [],
      "name": "rate",
      "outputs": [
        {
          "internalType": "uint256",
          "name": "",
          "type": "uint256"
        }
      ],
      "stateMutability": "view",
      "type": "function"
    },
    {
      "inputs": [],
      "name": "renounceOwnership",
      "outputs": [],
      "stateMutability": "nonpayable",
      "type": "function"
    },
    {
      "inputs": [
        {
          "internalType": "uint256",
          "name": "_amount",
          "type": "uint256"
        }
      ],
      "name": "sellTokens",
      "outputs": [],
      "stateMutability": "nonpayable",
      "type": "function"
    },
    {
      "inputs": [
        {
          "internalType": "uint256",
          "name": "_fee",
          "type": "uint256"
        }
      ],
      "name": "setFeePercentDeposit",
      "outputs": [],
      "stateMutability": "nonpayable",
      "type": "function"
    },
    {
      "inputs": [
        {
          "internalType": "uint256",
          "name": "_fee",
          "type": "uint256"
        }
      ],
      "name": "setFeePercentWithdraw",
      "outputs": [],
      "stateMutability": "nonpayable",
      "type": "function"
    },
    {
      "inputs": [
        {
          "internalType": "bool",
          "name": "_state",
          "type": "bool"
        }
      ],
      "name": "setPublicSaleEnabled",
      "outputs": [],
      "stateMutability": "nonpayable",
      "type": "function"
    },
    {
      "inputs": [
        {
          "internalType": "uint256",
          "name": "_rate",
          "type": "uint256"
        }
      ],
      "name": "setRate",
      "outputs": [],
      "stateMutability": "nonpayable",
      "type": "function"
    },
    {
      "inputs": [
        {
          "internalType": "bytes32",
          "name": "_whitelistRoot",
          "type": "bytes32"
        }
      ],
      "name": "setWhitelistRoot",
      "outputs": [],
      "stateMutability": "nonpayable",
      "type": "function"
    },
    {
      "inputs": [
        {
          "internalType": "address",
          "name": "newOwner",
          "type": "address"
        }
      ],
      "name": "transferOwnership",
      "outputs": [],
      "stateMutability": "nonpayable",
      "type": "function"
    },
    {
      "inputs": [],
      "name": "whitelistRoot",
      "outputs": [
        {
          "internalType": "bytes32",
          "name": "",
          "type": "bytes32"
        }
      ],
      "stateMutability": "view",
      "type": "function"
    },
    {
      "inputs": [],
      "name": "withdrawEth",
      "outputs": [],
      "stateMutability": "nonpayable",
      "type": "function"
    },
    {
      "inputs": [],
      "name": "withdrawToken",
      "outputs": [],
      "stateMutability": "nonpayable",
      "type": "function"
    }
  ],
  "bytecode": "0x6080604052620186a0600455602860055560056006553480156200002257600080fd5b5060405162001a3838038062001a3883398181016040528101906200004891906200019a565b620000686200005c620000b760201b60201c565b620000bf60201b60201c565b6001808190555080600260006101000a81548173ffffffffffffffffffffffffffffffffffffffff021916908373ffffffffffffffffffffffffffffffffffffffff1602179055505062000214565b600033905090565b60008060009054906101000a900473ffffffffffffffffffffffffffffffffffffffff169050816000806101000a81548173ffffffffffffffffffffffffffffffffffffffff021916908373ffffffffffffffffffffffffffffffffffffffff1602179055508173ffffffffffffffffffffffffffffffffffffffff168173ffffffffffffffffffffffffffffffffffffffff167f8be0079c531659141344cd1fd0a4f28419497f9722a3daafe3b4186f6b6457e060405160405180910390a35050565b6000815190506200019481620001fa565b92915050565b600060208284031215620001ad57600080fd5b6000620001bd8482850162000183565b91505092915050565b6000620001d382620001da565b9050919050565b600073ffffffffffffffffffffffffffffffffffffffff82169050919050565b6200020581620001c6565b81146200021157600080fd5b50565b61181480620002246000396000f3fe6080604052600436106101095760003560e01c80638720fbef11610095578063ab98089f11610064578063ab98089f1461030b578063b8a20ed014610327578063ca628c7814610364578063f2fde38b1461037b578063f5aa406d146103a457610109565b80638720fbef146102755780638da5cb5b1461029e578063a0ef91df146102c9578063a32c3998146102e057610109565b8063386bfc98116100dc578063386bfc98146101b657806369537c79146101e15780636c11bcd31461020c578063715018a61461023557806384021fc31461024c57610109565b8063247265fa1461010e5780632ab91bba146101375780632c4e722e1461016257806334fcf4371461018d575b600080fd5b34801561011a57600080fd5b5061013560048036038101906101309190610ffa565b6103cd565b005b34801561014357600080fd5b5061014c6103df565b604051610159919061122a565b60405180910390f35b34801561016e57600080fd5b506101776103f2565b6040516101849190611340565b60405180910390f35b34801561019957600080fd5b506101b460048036038101906101af9190610ffa565b6103f8565b005b3480156101c257600080fd5b506101cb61040a565b6040516101d89190611245565b60405180910390f35b3480156101ed57600080fd5b506101f6610410565b6040516102039190611340565b60405180910390f35b34801561021857600080fd5b50610233600480360381019061022e9190610ffa565b610416565b005b34801561024157600080fd5b5061024a61068c565b005b34801561025857600080fd5b50610273600480360381019061026e9190610ffa565b6106a0565b005b34801561028157600080fd5b5061029c60048036038101906102979190610f7f565b6106b2565b005b3480156102aa57600080fd5b506102b36106d7565b6040516102c091906111af565b60405180910390f35b3480156102d557600080fd5b506102de610700565b005b3480156102ec57600080fd5b506102f5610751565b6040516103029190611340565b60405180910390f35b61032560048036038101906103209190610eea565b610757565b005b34801561033357600080fd5b5061034e60048036038101906103499190610f2b565b610924565b60405161035b919061122a565b60405180910390f35b34801561037057600080fd5b5061037961093b565b005b34801561038757600080fd5b506103a2600480360381019061039d9190610ec1565b610a9f565b005b3480156103b057600080fd5b506103cb60048036038101906103c69190610fd1565b610b23565b005b6103d5610b35565b8060058190555050565b600760009054906101000a900460ff1681565b60045481565b610400610b35565b8060048190555050565b60035481565b60065481565b61041e610bb3565b60006103e86005546103e86104339190611448565b6004548461044191906113bd565b61044b91906113ee565b61045591906113bd565b905081600260009054906101000a900473ffffffffffffffffffffffffffffffffffffffff1673ffffffffffffffffffffffffffffffffffffffff166370a08231336040518263ffffffff1660e01b81526004016104b391906111af565b60206040518083038186803b1580156104cb57600080fd5b505afa1580156104df573d6000803e3d6000fd5b505050506040513d601f19601f820116820180604052508101906105039190611023565b1015610544576040517f08c379a000000000000000000000000000000000000000000000000000000000815260040161053b90611280565b60405180910390fd5b80471015610587576040517f08c379a000000000000000000000000000000000000000000000000000000000815260040161057e906112e0565b60405180910390fd5b3373ffffffffffffffffffffffffffffffffffffffff166108fc829081150290604051600060405180830381858888f193505050501580156105cd573d6000803e3d6000fd5b50600260009054906101000a900473ffffffffffffffffffffffffffffffffffffffff1673ffffffffffffffffffffffffffffffffffffffff166323b872dd3330856040518463ffffffff1660e01b815260040161062d939291906111ca565b602060405180830381600087803b15801561064757600080fd5b505af115801561065b573d6000803e3d6000fd5b505050506040513d601f19601f8201168201806040525081019061067f9190610fa8565b5050610689610c03565b50565b610694610b35565b61069e6000610c0c565b565b6106a8610b35565b8060068190555050565b6106ba610b35565b80600760006101000a81548160ff02191690831515021790555050565b60008060009054906101000a900473ffffffffffffffffffffffffffffffffffffffff16905090565b610708610b35565b3373ffffffffffffffffffffffffffffffffffffffff166108fc479081150290604051600060405180830381858888f1935050505015801561074e573d6000803e3d6000fd5b50565b60055481565b61075f610bb3565b600760009054906101000a900460ff16806107a657506107a5813360405160200161078a9190611194565b60405160208183030381529060405280519060200120610924565b5b6107e5576040517f08c379a00000000000000000000000000000000000000000000000000000000081526004016107dc906112a0565b60405180910390fd5b662386f26fc1000034101561082f576040517f08c379a000000000000000000000000000000000000000000000000000000000815260040161082690611300565b60405180910390fd5b60006103e86006546103e86108449190611448565b6004543461085291906113ee565b61085c91906113ee565b61086691906113bd565b9050600260009054906101000a900473ffffffffffffffffffffffffffffffffffffffff1673ffffffffffffffffffffffffffffffffffffffff1663a9059cbb33836040518363ffffffff1660e01b81526004016108c5929190611201565b602060405180830381600087803b1580156108df57600080fd5b505af11580156108f3573d6000803e3d6000fd5b505050506040513d601f19601f820116820180604052508101906109179190610fa8565b5050610921610c03565b50565b60006109338360035484610cd0565b905092915050565b610943610b35565b600260009054906101000a900473ffffffffffffffffffffffffffffffffffffffff1673ffffffffffffffffffffffffffffffffffffffff1663a9059cbb33600260009054906101000a900473ffffffffffffffffffffffffffffffffffffffff1673ffffffffffffffffffffffffffffffffffffffff166370a08231306040518263ffffffff1660e01b81526004016109dd91906111af565b60206040518083038186803b1580156109f557600080fd5b505afa158015610a09573d6000803e3d6000fd5b505050506040513d601f19601f82011682018060405250810190610a2d9190611023565b6040518363ffffffff1660e01b8152600401610a4a929190611201565b602060405180830381600087803b158015610a6457600080fd5b505af1158015610a78573d6000803e3d6000fd5b505050506040513d601f19601f82011682018060405250810190610a9c9190610fa8565b50565b610aa7610b35565b600073ffffffffffffffffffffffffffffffffffffffff168173ffffffffffffffffffffffffffffffffffffffff161415610b17576040517f08c379a0000000000000000000000000000000000000000000000000000000008152600401610b0e90611260565b60405180910390fd5b610b2081610c0c565b50565b610b2b610b35565b8060038190555050565b610b3d610ce7565b73ffffffffffffffffffffffffffffffffffffffff16610b5b6106d7565b73ffffffffffffffffffffffffffffffffffffffff1614610bb1576040517f08c379a0000000000000000000000000000000000000000000000000000000008152600401610ba8906112c0565b60405180910390fd5b565b60026001541415610bf9576040517f08c379a0000000000000000000000000000000000000000000000000000000008152600401610bf090611320565b60405180910390fd5b6002600181905550565b60018081905550565b60008060009054906101000a900473ffffffffffffffffffffffffffffffffffffffff169050816000806101000a81548173ffffffffffffffffffffffffffffffffffffffff021916908373ffffffffffffffffffffffffffffffffffffffff1602179055508173ffffffffffffffffffffffffffffffffffffffff168173ffffffffffffffffffffffffffffffffffffffff167f8be0079c531659141344cd1fd0a4f28419497f9722a3daafe3b4186f6b6457e060405160405180910390a35050565b600082610cdd8584610cef565b1490509392505050565b600033905090565b60008082905060005b8451811015610d6057610d4b82868381518110610d3e577f4e487b7100000000000000000000000000000000000000000000000000000000600052603260045260246000fd5b6020026020010151610d6b565b91508080610d58906114ff565b915050610cf8565b508091505092915050565b6000818310610d8357610d7e8284610d96565b610d8e565b610d8d8383610d96565b5b905092915050565b600082600052816020526040600020905092915050565b6000610dc0610dbb84611380565b61135b565b90508083825260208201905082856020860282011115610ddf57600080fd5b60005b85811015610e0f5781610df58882610e82565b845260208401935060208301925050600181019050610de2565b5050509392505050565b600081359050610e2881611782565b92915050565b600082601f830112610e3f57600080fd5b8135610e4f848260208601610dad565b91505092915050565b600081359050610e6781611799565b92915050565b600081519050610e7c81611799565b92915050565b600081359050610e91816117b0565b92915050565b600081359050610ea6816117c7565b92915050565b600081519050610ebb816117c7565b92915050565b600060208284031215610ed357600080fd5b6000610ee184828501610e19565b91505092915050565b600060208284031215610efc57600080fd5b600082013567ffffffffffffffff811115610f1657600080fd5b610f2284828501610e2e565b91505092915050565b60008060408385031215610f3e57600080fd5b600083013567ffffffffffffffff811115610f5857600080fd5b610f6485828601610e2e565b9250506020610f7585828601610e82565b9150509250929050565b600060208284031215610f9157600080fd5b6000610f9f84828501610e58565b91505092915050565b600060208284031215610fba57600080fd5b6000610fc884828501610e6d565b91505092915050565b600060208284031215610fe357600080fd5b6000610ff184828501610e82565b91505092915050565b60006020828403121561100c57600080fd5b600061101a84828501610e97565b91505092915050565b60006020828403121561103557600080fd5b600061104384828501610eac565b91505092915050565b6110558161147c565b82525050565b61106c6110678261147c565b611548565b82525050565b61107b8161148e565b82525050565b61108a8161149a565b82525050565b600061109d6026836113ac565b91506110a882611617565b604082019050919050565b60006110c06019836113ac565b91506110cb82611666565b602082019050919050565b60006110e36017836113ac565b91506110ee8261168f565b602082019050919050565b60006111066020836113ac565b9150611111826116b8565b602082019050919050565b6000611129601e836113ac565b9150611134826116e1565b602082019050919050565b600061114c6021836113ac565b91506111578261170a565b604082019050919050565b600061116f601f836113ac565b915061117a82611759565b602082019050919050565b61118e816114c4565b82525050565b60006111a0828461105b565b60148201915081905092915050565b60006020820190506111c4600083018461104c565b92915050565b60006060820190506111df600083018661104c565b6111ec602083018561104c565b6111f96040830184611185565b949350505050565b6000604082019050611216600083018561104c565b6112236020830184611185565b9392505050565b600060208201905061123f6000830184611072565b92915050565b600060208201905061125a6000830184611081565b92915050565b6000602082019050818103600083015261127981611090565b9050919050565b60006020820190508181036000830152611299816110b3565b9050919050565b600060208201905081810360008301526112b9816110d6565b9050919050565b600060208201905081810360008301526112d9816110f9565b9050919050565b600060208201905081810360008301526112f98161111c565b9050919050565b600060208201905081810360008301526113198161113f565b9050919050565b6000602082019050818103600083015261133981611162565b9050919050565b60006020820190506113556000830184611185565b92915050565b6000611365611376565b905061137182826114ce565b919050565b6000604051905090565b600067ffffffffffffffff82111561139b5761139a6115ca565b5b602082029050602081019050919050565b600082825260208201905092915050565b60006113c8826114c4565b91506113d3836114c4565b9250826113e3576113e261159b565b5b828204905092915050565b60006113f9826114c4565b9150611404836114c4565b9250817fffffffffffffffffffffffffffffffffffffffffffffffffffffffffffffffff048311821515161561143d5761143c61156c565b5b828202905092915050565b6000611453826114c4565b915061145e836114c4565b9250828210156114715761147061156c565b5b828203905092915050565b6000611487826114a4565b9050919050565b60008115159050919050565b6000819050919050565b600073ffffffffffffffffffffffffffffffffffffffff82169050919050565b6000819050919050565b6114d7826115f9565b810181811067ffffffffffffffff821117156114f6576114f56115ca565b5b80604052505050565b600061150a826114c4565b91507fffffffffffffffffffffffffffffffffffffffffffffffffffffffffffffffff82141561153d5761153c61156c565b5b600182019050919050565b60006115538261155a565b9050919050565b60006115658261160a565b9050919050565b7f4e487b7100000000000000000000000000000000000000000000000000000000600052601160045260246000fd5b7f4e487b7100000000000000000000000000000000000000000000000000000000600052601260045260246000fd5b7f4e487b7100000000000000000000000000000000000000000000000000000000600052604160045260246000fd5b6000601f19601f8301169050919050565b60008160601b9050919050565b7f4f776e61626c653a206e6577206f776e657220697320746865207a65726f206160008201527f6464726573730000000000000000000000000000000000000000000000000000602082015250565b7f5573657220686173206e6f7420656e6f75676820636f696e7300000000000000600082015250565b7f596f7520617265206e6f742077686974656c6973746564000000000000000000600082015250565b7f4f776e61626c653a2063616c6c6572206973206e6f7420746865206f776e6572600082015250565b7f486f75736520686173206e6f7420656e6f756768206c69717569646974790000600082015250565b7f4d696e696d756d20616d6f756e7420746f206465706f73697420697320302e3060008201527f3100000000000000000000000000000000000000000000000000000000000000602082015250565b7f5265656e7472616e637947756172643a207265656e7472616e742063616c6c00600082015250565b61178b8161147c565b811461179657600080fd5b50565b6117a28161148e565b81146117ad57600080fd5b50565b6117b98161149a565b81146117c457600080fd5b50565b6117d0816114c4565b81146117db57600080fd5b5056fea2646970667358221220435226339cde80e110394029b934a80a1cc5f1ad395d0c847c08311772fde45764736f6c63430008040033",
  "linkReferences": {},
  "deployedLinkReferences": {}
}